{
  "contractName": "Dex",
  "abi": [
    {
      "inputs": [],
      "stateMutability": "nonpayable",
      "type": "constructor"
    },
    {
      "anonymous": false,
      "inputs": [
        {
          "indexed": false,
          "internalType": "uint256",
          "name": "tradeId",
          "type": "uint256"
        },
        {
          "indexed": false,
          "internalType": "uint256",
          "name": "orderId",
          "type": "uint256"
        },
        {
          "indexed": true,
          "internalType": "bytes32",
          "name": "ticker",
          "type": "bytes32"
        },
        {
          "indexed": true,
          "internalType": "address",
          "name": "trader1",
          "type": "address"
        },
        {
          "indexed": true,
          "internalType": "address",
          "name": "trader2",
          "type": "address"
        },
        {
          "indexed": false,
          "internalType": "uint256",
          "name": "amount",
          "type": "uint256"
        },
        {
          "indexed": false,
          "internalType": "uint256",
          "name": "price",
          "type": "uint256"
        },
        {
          "indexed": false,
          "internalType": "uint256",
          "name": "date",
          "type": "uint256"
        }
      ],
      "name": "NewTradeEvent",
      "type": "event"
    },
    {
      "inputs": [],
      "name": "admin",
      "outputs": [
        {
          "internalType": "address",
          "name": "",
          "type": "address"
        }
      ],
      "stateMutability": "view",
      "type": "function",
      "constant": true
    },
    {
      "inputs": [],
      "name": "nextOrderId",
      "outputs": [
        {
          "internalType": "uint256",
          "name": "",
          "type": "uint256"
        }
      ],
      "stateMutability": "view",
      "type": "function",
      "constant": true
    },
    {
      "inputs": [],
      "name": "nextTradeId",
      "outputs": [
        {
          "internalType": "uint256",
          "name": "",
          "type": "uint256"
        }
      ],
      "stateMutability": "view",
      "type": "function",
      "constant": true
    },
    {
      "inputs": [
        {
          "internalType": "bytes32",
          "name": "",
          "type": "bytes32"
        },
        {
          "internalType": "uint256",
          "name": "",
          "type": "uint256"
        },
        {
          "internalType": "uint256",
          "name": "",
          "type": "uint256"
        }
      ],
      "name": "orderBook",
      "outputs": [
        {
          "internalType": "uint256",
          "name": "id",
          "type": "uint256"
        },
        {
          "internalType": "address",
          "name": "trader",
          "type": "address"
        },
        {
          "internalType": "enum Dex.Side",
          "name": "side",
          "type": "uint8"
        },
        {
          "internalType": "bytes32",
          "name": "ticker",
          "type": "bytes32"
        },
        {
          "internalType": "uint256",
          "name": "amount",
          "type": "uint256"
        },
        {
          "internalType": "uint256",
          "name": "filled",
          "type": "uint256"
        },
        {
          "internalType": "uint256",
          "name": "price",
          "type": "uint256"
        },
        {
          "internalType": "uint256",
          "name": "date",
          "type": "uint256"
        }
      ],
      "stateMutability": "view",
      "type": "function",
      "constant": true
    },
    {
      "inputs": [
        {
          "internalType": "uint256",
          "name": "",
          "type": "uint256"
        }
      ],
      "name": "tokenList",
      "outputs": [
        {
          "internalType": "bytes32",
          "name": "",
          "type": "bytes32"
        }
      ],
      "stateMutability": "view",
      "type": "function",
      "constant": true
    },
    {
      "inputs": [
        {
          "internalType": "bytes32",
          "name": "",
          "type": "bytes32"
        }
      ],
      "name": "tokens",
      "outputs": [
        {
          "internalType": "bytes32",
          "name": "ticker",
          "type": "bytes32"
        },
        {
          "internalType": "address",
          "name": "tokenAddress",
          "type": "address"
        }
      ],
      "stateMutability": "view",
      "type": "function",
      "constant": true
    },
    {
      "inputs": [
        {
          "internalType": "address",
          "name": "",
          "type": "address"
        },
        {
          "internalType": "bytes32",
          "name": "",
          "type": "bytes32"
        }
      ],
      "name": "traderBalances",
      "outputs": [
        {
          "internalType": "uint256",
          "name": "",
          "type": "uint256"
        }
      ],
      "stateMutability": "view",
      "type": "function",
      "constant": true
    },
    {
      "inputs": [
        {
          "internalType": "bytes32",
          "name": "ticker",
          "type": "bytes32"
        },
        {
          "internalType": "enum Dex.Side",
          "name": "side",
          "type": "uint8"
        }
      ],
      "name": "getOrders",
      "outputs": [
        {
          "components": [
            {
              "internalType": "uint256",
              "name": "id",
              "type": "uint256"
            },
            {
              "internalType": "address",
              "name": "trader",
              "type": "address"
            },
            {
              "internalType": "enum Dex.Side",
              "name": "side",
              "type": "uint8"
            },
            {
              "internalType": "bytes32",
              "name": "ticker",
              "type": "bytes32"
            },
            {
              "internalType": "uint256",
              "name": "amount",
              "type": "uint256"
            },
            {
              "internalType": "uint256",
              "name": "filled",
              "type": "uint256"
            },
            {
              "internalType": "uint256",
              "name": "price",
              "type": "uint256"
            },
            {
              "internalType": "uint256",
              "name": "date",
              "type": "uint256"
            }
          ],
          "internalType": "struct Dex.Order[]",
          "name": "",
          "type": "tuple[]"
        }
      ],
      "stateMutability": "view",
      "type": "function",
      "constant": true
    },
    {
      "inputs": [],
      "name": "getTokens",
      "outputs": [
        {
          "components": [
            {
              "internalType": "bytes32",
              "name": "ticker",
              "type": "bytes32"
            },
            {
              "internalType": "address",
              "name": "tokenAddress",
              "type": "address"
            }
          ],
          "internalType": "struct Dex.Token[]",
          "name": "",
          "type": "tuple[]"
        }
      ],
      "stateMutability": "view",
      "type": "function",
      "constant": true
    },
    {
      "inputs": [
        {
          "internalType": "bytes32",
          "name": "ticker",
          "type": "bytes32"
        },
        {
          "internalType": "address",
          "name": "tokenAddress",
          "type": "address"
        }
      ],
      "name": "addToken",
      "outputs": [],
      "stateMutability": "nonpayable",
      "type": "function"
    },
    {
      "inputs": [
        {
          "internalType": "uint256",
          "name": "_amount",
          "type": "uint256"
        },
        {
          "internalType": "bytes32",
          "name": "_ticker",
          "type": "bytes32"
        }
      ],
      "name": "deposit",
      "outputs": [],
      "stateMutability": "nonpayable",
      "type": "function"
    },
    {
      "inputs": [
        {
          "internalType": "uint256",
          "name": "_amount",
          "type": "uint256"
        },
        {
          "internalType": "bytes32",
          "name": "_ticker",
          "type": "bytes32"
        }
      ],
      "name": "withdraw",
      "outputs": [],
      "stateMutability": "nonpayable",
      "type": "function"
    },
    {
      "inputs": [
        {
          "internalType": "bytes32",
          "name": "ticker",
          "type": "bytes32"
        },
        {
          "internalType": "uint256",
          "name": "amount",
          "type": "uint256"
        },
        {
          "internalType": "uint256",
          "name": "price",
          "type": "uint256"
        },
        {
          "internalType": "enum Dex.Side",
          "name": "side",
          "type": "uint8"
        }
      ],
      "name": "createLimitOrder",
      "outputs": [],
      "stateMutability": "nonpayable",
      "type": "function"
    },
    {
      "inputs": [
        {
          "internalType": "bytes32",
          "name": "ticker",
          "type": "bytes32"
        },
        {
          "internalType": "uint256",
          "name": "amount",
          "type": "uint256"
        },
        {
          "internalType": "enum Dex.Side",
          "name": "side",
          "type": "uint8"
        }
      ],
      "name": "createMarketOrder",
      "outputs": [],
      "stateMutability": "nonpayable",
      "type": "function"
    }
  ],
  "bytecode": "0x608060405234801561001057600080fd5b5033600260006101000a81548173ffffffffffffffffffffffffffffffffffffffff021916908373ffffffffffffffffffffffffffffffffffffffff1602179055506133d3806100616000396000f3fe608060405234801561001057600080fd5b50600436106100ea5760003560e01c80639776aacf1161008c578063aa6ca80811610066578063aa6ca80814610277578063c9630cb014610295578063d9c0c950146102b1578063f851a440146102cd576100ea565b80639776aacf1461020f5780639ead72221461022b578063a8d2021a1461025b576100ea565b806372ce957e116100c857806372ce957e146101745780637f2c6246146101a4578063813ad083146101c0578063904194a3146101de576100ea565b80630bb431b6146100ef5780632a58b3301461012657806346e9658b14610144575b600080fd5b61010960048036036101049190810190612923565b6102eb565b60405161011d989796959493929190613123565b60405180910390f35b61012e610387565b60405161013b9190613108565b60405180910390f35b61015e60048036036101599190810190612898565b61038d565b60405161016b9190612f60565b60405180910390f35b61018e600480360361018991908101906127ce565b6104dc565b60405161019b9190613108565b60405180910390f35b6101be60048036036101b991908101906128d4565b610501565b005b6101c86115d0565b6040516101d59190613108565b60405180910390f35b6101f860048036036101f39190810190612833565b6115d6565b604051610206929190612fbf565b60405180910390f35b6102296004803603610224919081019061285c565b61161a565b005b610245600480360361024091908101906129d5565b611768565b6040516102529190612fa4565b60405180910390f35b610275600480360361027091908101906129fe565b611789565b005b61027f611a41565b60405161028c9190612f82565b60405180910390f35b6102af60048036036102aa91908101906129fe565b611b68565b005b6102cb60048036036102c69190810190612972565b611d8f565b005b6102d561258e565b6040516102e29190612ee5565b60405180910390f35b6004602052826000526040600020602052816000526040600020818154811061031057fe5b906000526020600020906007020160009250925050508060000154908060010160009054906101000a900473ffffffffffffffffffffffffffffffffffffffff16908060010160149054906101000a900460ff16908060020154908060030154908060040154908060050154908060060154905088565b60055481565b60606004600084815260200190815260200160002060008360018111156103b057fe5b8152602001908152602001600020805480602002602001604051908101604052809291908181526020016000905b828210156104d0578382906000526020600020906007020160405180610100016040529081600082015481526020016001820160009054906101000a900473ffffffffffffffffffffffffffffffffffffffff1673ffffffffffffffffffffffffffffffffffffffff1673ffffffffffffffffffffffffffffffffffffffff1681526020016001820160149054906101000a900460ff16600181111561048057fe5b600181111561048b57fe5b815260200160028201548152602001600382015481526020016004820154815260200160058201548152602001600682015481525050815260200190600101906103de565b50505050905092915050565b6003602052816000526040600020602052806000526040600020600091509150505481565b82600073ffffffffffffffffffffffffffffffffffffffff1660008083815260200190815260200160002060010160009054906101000a900473ffffffffffffffffffffffffffffffffffffffff1673ffffffffffffffffffffffffffffffffffffffff1614156105a7576040517f08c379a000000000000000000000000000000000000000000000000000000000815260040161059e906130e8565b60405180910390fd5b837f444149000000000000000000000000000000000000000000000000000000000081141561060b576040517f08c379a000000000000000000000000000000000000000000000000000000000815260040161060290613068565b60405180910390fd5b60018081111561061757fe5b83600181111561062357fe5b14156106bd5783600360003373ffffffffffffffffffffffffffffffffffffffff1673ffffffffffffffffffffffffffffffffffffffff16815260200190815260200160002060008781526020019081526020016000205410156106bc576040517f08c379a00000000000000000000000000000000000000000000000000000000081526004016106b3906130a8565b60405180910390fd5b5b60006004600087815260200190815260200160002060008060018111156106e057fe5b8660018111156106ec57fe5b146106f85760006106fb565b60015b600181111561070657fe5b815260200190815260200160002090506000808690505b8280549050821080156107305750600081115b1561138157600061078484848154811061074657fe5b90600052602060002090600702016004015485858154811061076457fe5b9060005260206000209060070201600301546125b490919063ffffffff16565b905060008183116107955782610797565b815b90506107ac81846125b490919063ffffffff16565b92506107de818686815481106107be57fe5b90600052602060002090600702016004015461260490919063ffffffff16565b8585815481106107ea57fe5b9060005260206000209060070201600401819055503373ffffffffffffffffffffffffffffffffffffffff1685858154811061082257fe5b906000526020600020906007020160010160009054906101000a900473ffffffffffffffffffffffffffffffffffffffff1673ffffffffffffffffffffffffffffffffffffffff168b7f27014fc4f2b1eb4a823fbb538ad4df37b0e953048bf7fc622431d4125aa0522a60065489898154811061089b57fe5b906000526020600020906007020160000154868b8b815481106108ba57fe5b906000526020600020906007020160050154426040516108de9594939291906131a1565b60405180910390a46001808111156108f257fe5b8860018111156108fe57fe5b1415610db75761096781600360003373ffffffffffffffffffffffffffffffffffffffff1673ffffffffffffffffffffffffffffffffffffffff16815260200190815260200160002060008d8152602001908152602001600020546125b490919063ffffffff16565b600360003373ffffffffffffffffffffffffffffffffffffffff1673ffffffffffffffffffffffffffffffffffffffff16815260200190815260200160002060008c815260200190815260200160002081905550610a6d6109ee8686815481106109cd57fe5b9060005260206000209060070201600501548361265990919063ffffffff16565b600360003373ffffffffffffffffffffffffffffffffffffffff1673ffffffffffffffffffffffffffffffffffffffff16815260200190815260200160002060007f444149000000000000000000000000000000000000000000000000000000000081526020019081526020016000205461260490919063ffffffff16565b600360003373ffffffffffffffffffffffffffffffffffffffff1673ffffffffffffffffffffffffffffffffffffffff16815260200190815260200160002060007f4441490000000000000000000000000000000000000000000000000000000000815260200190815260200160002081905550610b818160036000888881548110610af557fe5b906000526020600020906007020160010160009054906101000a900473ffffffffffffffffffffffffffffffffffffffff1673ffffffffffffffffffffffffffffffffffffffff1673ffffffffffffffffffffffffffffffffffffffff16815260200190815260200160002060008d81526020019081526020016000205461260490919063ffffffff16565b60036000878781548110610b9157fe5b906000526020600020906007020160010160009054906101000a900473ffffffffffffffffffffffffffffffffffffffff1673ffffffffffffffffffffffffffffffffffffffff1673ffffffffffffffffffffffffffffffffffffffff16815260200190815260200160002060008c815260200190815260200160002081905550610d01610c45868681548110610c2457fe5b9060005260206000209060070201600501548361265990919063ffffffff16565b60036000888881548110610c5557fe5b906000526020600020906007020160010160009054906101000a900473ffffffffffffffffffffffffffffffffffffffff1673ffffffffffffffffffffffffffffffffffffffff1673ffffffffffffffffffffffffffffffffffffffff16815260200190815260200160002060007f44414900000000000000000000000000000000000000000000000000000000008152602001908152602001600020546125b490919063ffffffff16565b60036000878781548110610d1157fe5b906000526020600020906007020160010160009054906101000a900473ffffffffffffffffffffffffffffffffffffffff1673ffffffffffffffffffffffffffffffffffffffff1673ffffffffffffffffffffffffffffffffffffffff16815260200190815260200160002060007f4441490000000000000000000000000000000000000000000000000000000000815260200190815260200160002081905550611348565b610de7858581548110610dc657fe5b9060005260206000209060070201600501548a61265990919063ffffffff16565b600360003373ffffffffffffffffffffffffffffffffffffffff1673ffffffffffffffffffffffffffffffffffffffff16815260200190815260200160002060007f44414900000000000000000000000000000000000000000000000000000000008152602001908152602001600020541015610e99576040517f08c379a0000000000000000000000000000000000000000000000000000000008152600401610e90906130c8565b60405180910390fd5b610efc81600360003373ffffffffffffffffffffffffffffffffffffffff1673ffffffffffffffffffffffffffffffffffffffff16815260200190815260200160002060008d81526020019081526020016000205461260490919063ffffffff16565b600360003373ffffffffffffffffffffffffffffffffffffffff1673ffffffffffffffffffffffffffffffffffffffff16815260200190815260200160002060008c815260200190815260200160002081905550611002610f83868681548110610f6257fe5b9060005260206000209060070201600501548361265990919063ffffffff16565b600360003373ffffffffffffffffffffffffffffffffffffffff1673ffffffffffffffffffffffffffffffffffffffff16815260200190815260200160002060007f44414900000000000000000000000000000000000000000000000000000000008152602001908152602001600020546125b490919063ffffffff16565b600360003373ffffffffffffffffffffffffffffffffffffffff1673ffffffffffffffffffffffffffffffffffffffff16815260200190815260200160002060007f4441490000000000000000000000000000000000000000000000000000000000815260200190815260200160002081905550611116816003600088888154811061108a57fe5b906000526020600020906007020160010160009054906101000a900473ffffffffffffffffffffffffffffffffffffffff1673ffffffffffffffffffffffffffffffffffffffff1673ffffffffffffffffffffffffffffffffffffffff16815260200190815260200160002060008d8152602001908152602001600020546125b490919063ffffffff16565b6003600087878154811061112657fe5b906000526020600020906007020160010160009054906101000a900473ffffffffffffffffffffffffffffffffffffffff1673ffffffffffffffffffffffffffffffffffffffff1673ffffffffffffffffffffffffffffffffffffffff16815260200190815260200160002060008c8152602001908152602001600020819055506112966111da8686815481106111b957fe5b9060005260206000209060070201600501548361265990919063ffffffff16565b600360008888815481106111ea57fe5b906000526020600020906007020160010160009054906101000a900473ffffffffffffffffffffffffffffffffffffffff1673ffffffffffffffffffffffffffffffffffffffff1673ffffffffffffffffffffffffffffffffffffffff16815260200190815260200160002060007f444149000000000000000000000000000000000000000000000000000000000081526020019081526020016000205461260490919063ffffffff16565b600360008787815481106112a657fe5b906000526020600020906007020160010160009054906101000a900473ffffffffffffffffffffffffffffffffffffffff1673ffffffffffffffffffffffffffffffffffffffff1673ffffffffffffffffffffffffffffffffffffffff16815260200190815260200160002060007f44414900000000000000000000000000000000000000000000000000000000008152602001908152602001600020819055505b61135e600160065461260490919063ffffffff16565b60068190555061137860018561260490919063ffffffff16565b9350505061071d565b600091505b8280549050821080156113d257508282815481106113a057fe5b9060005260206000209060070201600301548383815481106113be57fe5b906000526020600020906007020160040154145b156115c65760008290505b600184805490500381101561151c578361140160018361260490919063ffffffff16565b8154811061140b57fe5b906000526020600020906007020184828154811061142557fe5b9060005260206000209060070201600082015481600001556001820160009054906101000a900473ffffffffffffffffffffffffffffffffffffffff168160010160006101000a81548173ffffffffffffffffffffffffffffffffffffffff021916908373ffffffffffffffffffffffffffffffffffffffff1602179055506001820160149054906101000a900460ff168160010160146101000a81548160ff021916908360018111156114d557fe5b0217905550600282015481600201556003820154816003015560048201548160040155600582015481600501556006820154816006015590505080806001019150506113dd565b508280548061152757fe5b60019003818190600052602060002090600702016000808201600090556001820160006101000a81549073ffffffffffffffffffffffffffffffffffffffff02191690556001820160146101000a81549060ff021916905560028201600090556003820160009055600482016000905560058201600090556006820160009055505090556115bf60018361260490919063ffffffff16565b9150611386565b5050505050505050565b60065481565b60006020528060005260406000206000915090508060000154908060010160009054906101000a900473ffffffffffffffffffffffffffffffffffffffff16905082565b600260009054906101000a900473ffffffffffffffffffffffffffffffffffffffff1673ffffffffffffffffffffffffffffffffffffffff163373ffffffffffffffffffffffffffffffffffffffff16146116aa576040517f08c379a00000000000000000000000000000000000000000000000000000000081526004016116a190613028565b60405180910390fd5b60405180604001604052808381526020018273ffffffffffffffffffffffffffffffffffffffff168152506000808481526020019081526020016000206000820151816000015560208201518160010160006101000a81548173ffffffffffffffffffffffffffffffffffffffff021916908373ffffffffffffffffffffffffffffffffffffffff16021790555090505060018290806001815401808255809150506001900390600052602060002001600090919091909150555050565b6001818154811061177557fe5b906000526020600020016000915090505481565b80600073ffffffffffffffffffffffffffffffffffffffff1660008083815260200190815260200160002060010160009054906101000a900473ffffffffffffffffffffffffffffffffffffffff1673ffffffffffffffffffffffffffffffffffffffff16141561182f576040517f08c379a0000000000000000000000000000000000000000000000000000000008152600401611826906130e8565b60405180910390fd5b82600360003373ffffffffffffffffffffffffffffffffffffffff1673ffffffffffffffffffffffffffffffffffffffff16815260200190815260200160002060008481526020019081526020016000205410156118c2576040517f08c379a00000000000000000000000000000000000000000000000000000000081526004016118b990613008565b60405180910390fd5b60008083815260200190815260200160002060010160009054906101000a900473ffffffffffffffffffffffffffffffffffffffff1673ffffffffffffffffffffffffffffffffffffffff1663a9059cbb33856040518363ffffffff1660e01b8152600401611932929190612f37565b602060405180830381600087803b15801561194c57600080fd5b505af1158015611960573d6000803e3d6000fd5b505050506040513d601f19601f82011682018060405250611984919081019061280a565b506119e883600360003373ffffffffffffffffffffffffffffffffffffffff1673ffffffffffffffffffffffffffffffffffffffff1681526020019081526020016000206000858152602001908152602001600020546125b490919063ffffffff16565b600360003373ffffffffffffffffffffffffffffffffffffffff1673ffffffffffffffffffffffffffffffffffffffff168152602001908152602001600020600084815260200190815260200160002081905550505050565b606080600180549050604051908082528060200260200182016040528015611a8357816020015b611a706126c9565b815260200190600190039081611a685790505b50905060008090505b600180549050811015611b6057604051806040016040528060008060018581548110611ab457fe5b9060005260206000200154815260200190815260200160002060000154815260200160008060018581548110611ae657fe5b9060005260206000200154815260200190815260200160002060010160009054906101000a900473ffffffffffffffffffffffffffffffffffffffff1673ffffffffffffffffffffffffffffffffffffffff16815250828281518110611b4857fe5b60200260200101819052508080600101915050611a8c565b508091505090565b80600073ffffffffffffffffffffffffffffffffffffffff1660008083815260200190815260200160002060010160009054906101000a900473ffffffffffffffffffffffffffffffffffffffff1673ffffffffffffffffffffffffffffffffffffffff161415611c0e576040517f08c379a0000000000000000000000000000000000000000000000000000000008152600401611c05906130e8565b60405180910390fd5b60008083815260200190815260200160002060010160009054906101000a900473ffffffffffffffffffffffffffffffffffffffff1673ffffffffffffffffffffffffffffffffffffffff166323b872dd3330866040518463ffffffff1660e01b8152600401611c8093929190612f00565b602060405180830381600087803b158015611c9a57600080fd5b505af1158015611cae573d6000803e3d6000fd5b505050506040513d601f19601f82011682018060405250611cd2919081019061280a565b50611d3683600360003373ffffffffffffffffffffffffffffffffffffffff1673ffffffffffffffffffffffffffffffffffffffff16815260200190815260200160002060008581526020019081526020016000205461260490919063ffffffff16565b600360003373ffffffffffffffffffffffffffffffffffffffff1673ffffffffffffffffffffffffffffffffffffffff168152602001908152602001600020600084815260200190815260200160002081905550505050565b83600073ffffffffffffffffffffffffffffffffffffffff1660008083815260200190815260200160002060010160009054906101000a900473ffffffffffffffffffffffffffffffffffffffff1673ffffffffffffffffffffffffffffffffffffffff161415611e35576040517f08c379a0000000000000000000000000000000000000000000000000000000008152600401611e2c906130e8565b60405180910390fd5b847f4441490000000000000000000000000000000000000000000000000000000000811415611e99576040517f08c379a0000000000000000000000000000000000000000000000000000000008152600401611e9090613068565b60405180910390fd5b600180811115611ea557fe5b836001811115611eb157fe5b1415611f4f5784600360003373ffffffffffffffffffffffffffffffffffffffff1673ffffffffffffffffffffffffffffffffffffffff1681526020019081526020016000206000888152602001908152602001600020541015611f4a576040517f08c379a0000000000000000000000000000000000000000000000000000000008152600401611f41906130a8565b60405180910390fd5b612015565b611f62848661265990919063ffffffff16565b600360003373ffffffffffffffffffffffffffffffffffffffff1673ffffffffffffffffffffffffffffffffffffffff16815260200190815260200160002060007f44414900000000000000000000000000000000000000000000000000000000008152602001908152602001600020541015612014576040517f08c379a000000000000000000000000000000000000000000000000000000000815260040161200b906130c8565b60405180910390fd5b5b600060046000888152602001908152602001600020600085600181111561203857fe5b815260200190815260200160002090508060405180610100016040528060055481526020013373ffffffffffffffffffffffffffffffffffffffff16815260200186600181111561208557fe5b8152602001898152602001888152602001600081526020018781526020014281525090806001815401808255809150506001900390600052602060002090600702016000909190919091506000820151816000015560208201518160010160006101000a81548173ffffffffffffffffffffffffffffffffffffffff021916908373ffffffffffffffffffffffffffffffffffffffff16021790555060408201518160010160146101000a81548160ff0219169083600181111561214557fe5b0217905550606082015181600201556080820151816003015560a0820151816004015560c0820151816005015560e08201518160060155505060008082805490501161219257600061219b565b60018280549050035b90505b600081111561256857600060018111156121b457fe5b8560018111156121c057fe5b14801561220957508181815481106121d457fe5b9060005260206000209060070201600501548260018303815481106121f557fe5b906000526020600020906007020160050154115b1561221357612568565b60018081111561221f57fe5b85600181111561222b57fe5b148015612274575081818154811061223f57fe5b90600052602060002090600702016005015482600183038154811061226057fe5b906000526020600020906007020160050154105b1561227e57612568565b6122866126fc565b82600183038154811061229557fe5b906000526020600020906007020160405180610100016040529081600082015481526020016001820160009054906101000a900473ffffffffffffffffffffffffffffffffffffffff1673ffffffffffffffffffffffffffffffffffffffff1673ffffffffffffffffffffffffffffffffffffffff1681526020016001820160149054906101000a900460ff16600181111561232d57fe5b600181111561233857fe5b815260200160028201548152602001600382015481526020016004820154815260200160058201548152602001600682015481525050905082828154811061237c57fe5b906000526020600020906007020183600184038154811061239957fe5b9060005260206000209060070201600082015481600001556001820160009054906101000a900473ffffffffffffffffffffffffffffffffffffffff168160010160006101000a81548173ffffffffffffffffffffffffffffffffffffffff021916908373ffffffffffffffffffffffffffffffffffffffff1602179055506001820160149054906101000a900460ff168160010160146101000a81548160ff0219169083600181111561244957fe5b021790555060028201548160020155600382015481600301556004820154816004015560058201548160050155600682015481600601559050508083838154811061249057fe5b90600052602060002090600702016000820151816000015560208201518160010160006101000a81548173ffffffffffffffffffffffffffffffffffffffff021916908373ffffffffffffffffffffffffffffffffffffffff16021790555060408201518160010160146101000a81548160ff0219169083600181111561251357fe5b0217905550606082015181600201556080820151816003015560a0820151816004015560c0820151816005015560e082015181600601559050506125616001836125b490919063ffffffff16565b505061219e565b61257e600160055461260490919063ffffffff16565b6005819055505050505050505050565b600260009054906101000a900473ffffffffffffffffffffffffffffffffffffffff1681565b6000828211156125f9576040517f08c379a00000000000000000000000000000000000000000000000000000000081526004016125f090613048565b60405180910390fd5b818303905092915050565b60008082840190508381101561264f576040517f08c379a000000000000000000000000000000000000000000000000000000000815260040161264690612fe8565b60405180910390fd5b8091505092915050565b60008083141561266c57600090506126c3565b600082840290508284828161267d57fe5b04146126be576040517f08c379a00000000000000000000000000000000000000000000000000000000081526004016126b590613088565b60405180910390fd5b809150505b92915050565b604051806040016040528060008019168152602001600073ffffffffffffffffffffffffffffffffffffffff1681525090565b60405180610100016040528060008152602001600073ffffffffffffffffffffffffffffffffffffffff1681526020016000600181111561273957fe5b815260200160008019168152602001600081526020016000815260200160008152602001600081525090565b60008135905061277481613331565b92915050565b60008151905061278981613348565b92915050565b60008135905061279e8161335f565b92915050565b6000813590506127b381613376565b92915050565b6000813590506127c881613386565b92915050565b600080604083850312156127e157600080fd5b60006127ef85828601612765565b92505060206128008582860161278f565b9150509250929050565b60006020828403121561281c57600080fd5b600061282a8482850161277a565b91505092915050565b60006020828403121561284557600080fd5b60006128538482850161278f565b91505092915050565b6000806040838503121561286f57600080fd5b600061287d8582860161278f565b925050602061288e85828601612765565b9150509250929050565b600080604083850312156128ab57600080fd5b60006128b98582860161278f565b92505060206128ca858286016127a4565b9150509250929050565b6000806000606084860312156128e957600080fd5b60006128f78682870161278f565b9350506020612908868287016127b9565b9250506040612919868287016127a4565b9150509250925092565b60008060006060848603121561293857600080fd5b60006129468682870161278f565b9350506020612957868287016127b9565b9250506040612968868287016127b9565b9150509250925092565b6000806000806080858703121561298857600080fd5b60006129968782880161278f565b94505060206129a7878288016127b9565b93505060406129b8878288016127b9565b92505060606129c9878288016127a4565b91505092959194509250565b6000602082840312156129e757600080fd5b60006129f5848285016127b9565b91505092915050565b60008060408385031215612a1157600080fd5b6000612a1f858286016127b9565b9250506020612a308582860161278f565b9150509250929050565b6000612a468383612df6565b6101008301905092915050565b6000612a5f8383612e98565b60408301905092915050565b612a74816132dc565b82525050565b612a8381613277565b82525050565b612a9281613277565b82525050565b6000612aa382613214565b612aad8185613244565b9350612ab8836131f4565b8060005b83811015612ae9578151612ad08882612a3a565b9750612adb8361322a565b925050600181019050612abc565b5085935050505092915050565b6000612b018261321f565b612b0b8185613255565b9350612b1683613204565b8060005b83811015612b47578151612b2e8882612a53565b9750612b3983613237565b925050600181019050612b1a565b5085935050505092915050565b612b5d81613295565b82525050565b612b6c81613295565b82525050565b612b7b816132ee565b82525050565b612b8a816132ee565b82525050565b6000612b9d601b83613266565b91507f536166654d6174683a206164646974696f6e206f766572666c6f7700000000006000830152602082019050919050565b6000612bdd600f83613266565b91507f62616c616e636520746f6f206c6f7700000000000000000000000000000000006000830152602082019050919050565b6000612c1d600a83613266565b91507f6f6e6c792061646d696e000000000000000000000000000000000000000000006000830152602082019050919050565b6000612c5d601e83613266565b91507f536166654d6174683a207375627472616374696f6e206f766572666c6f7700006000830152602082019050919050565b6000612c9d601083613266565b91507f63616e6e6f7420747261646520444149000000000000000000000000000000006000830152602082019050919050565b6000612cdd602183613266565b91507f536166654d6174683a206d756c7469706c69636174696f6e206f766572666c6f60008301527f77000000000000000000000000000000000000000000000000000000000000006020830152604082019050919050565b6000612d43601583613266565b91507f746f6b656e2062616c616e636520746f6f206c6f7700000000000000000000006000830152602082019050919050565b6000612d83601383613266565b91507f6461692062616c616e636520746f6f206c6f77000000000000000000000000006000830152602082019050919050565b6000612dc3601483613266565b91507f746f6b656e20646f6573206e6f742065786973740000000000000000000000006000830152602082019050919050565b61010082016000820151612e0d6000850182612ec7565b506020820151612e206020850182612a7a565b506040820151612e336040850182612b72565b506060820151612e466060850182612b54565b506080820151612e596080850182612ec7565b5060a0820151612e6c60a0850182612ec7565b5060c0820151612e7f60c0850182612ec7565b5060e0820151612e9260e0850182612ec7565b50505050565b604082016000820151612eae6000850182612b54565b506020820151612ec16020850182612a7a565b50505050565b612ed0816132d2565b82525050565b612edf816132d2565b82525050565b6000602082019050612efa6000830184612a89565b92915050565b6000606082019050612f156000830186612a6b565b612f226020830185612a89565b612f2f6040830184612ed6565b949350505050565b6000604082019050612f4c6000830185612a6b565b612f596020830184612ed6565b9392505050565b60006020820190508181036000830152612f7a8184612a98565b905092915050565b60006020820190508181036000830152612f9c8184612af6565b905092915050565b6000602082019050612fb96000830184612b63565b92915050565b6000604082019050612fd46000830185612b63565b612fe16020830184612a89565b9392505050565b6000602082019050818103600083015261300181612b90565b9050919050565b6000602082019050818103600083015261302181612bd0565b9050919050565b6000602082019050818103600083015261304181612c10565b9050919050565b6000602082019050818103600083015261306181612c50565b9050919050565b6000602082019050818103600083015261308181612c90565b9050919050565b600060208201905081810360008301526130a181612cd0565b9050919050565b600060208201905081810360008301526130c181612d36565b9050919050565b600060208201905081810360008301526130e181612d76565b9050919050565b6000602082019050818103600083015261310181612db6565b9050919050565b600060208201905061311d6000830184612ed6565b92915050565b600061010082019050613139600083018b612ed6565b613146602083018a612a89565b6131536040830189612b81565b6131606060830188612b63565b61316d6080830187612ed6565b61317a60a0830186612ed6565b61318760c0830185612ed6565b61319460e0830184612ed6565b9998505050505050505050565b600060a0820190506131b66000830188612ed6565b6131c36020830187612ed6565b6131d06040830186612ed6565b6131dd6060830185612ed6565b6131ea6080830184612ed6565b9695505050505050565b6000819050602082019050919050565b6000819050602082019050919050565b600081519050919050565b600081519050919050565b6000602082019050919050565b6000602082019050919050565b600082825260208201905092915050565b600082825260208201905092915050565b600082825260208201905092915050565b6000613282826132b2565b9050919050565b60008115159050919050565b6000819050919050565b60008190506132ad82613324565b919050565b600073ffffffffffffffffffffffffffffffffffffffff82169050919050565b6000819050919050565b60006132e782613300565b9050919050565b60006132f98261329f565b9050919050565b600061330b82613312565b9050919050565b600061331d826132b2565b9050919050565b6002811061332e57fe5b50565b61333a81613277565b811461334557600080fd5b50565b61335181613289565b811461335c57600080fd5b50565b61336881613295565b811461337357600080fd5b50565b6002811061338357600080fd5b50565b61338f816132d2565b811461339a57600080fd5b5056fea2646970667358221220b03a81654acc4de97f4f01d7e8f1ed28917bfb23d33825bd28099cb14c99fbe864736f6c63430006030033",
  "source": "pragma solidity 0.6.3;\r\npragma experimental ABIEncoderV2;\r\n\r\nimport \"@openzeppelin/contracts/token/ERC20/IERC20.sol\";\r\n//import \"https://github.com/OpenZeppelin/openzeppelin-contracts/blob/master/contracts/token/ERC20/IERC20.sol\";\r\nimport \"@openzeppelin/contracts/math/SafeMath.sol\";\r\n\r\ncontract Dex {\r\n\r\n  using SafeMath for uint;\r\n\r\n  struct Token {\r\n    bytes32 ticker;\r\n    address tokenAddress;\r\n  }\r\n\r\n  enum Side {\r\n    BUY,\r\n    SELL\r\n  }\r\n\r\n  struct Order {\r\n    uint id;\r\n    address trader;\r\n    Side side;\r\n    bytes32 ticker;\r\n    uint amount;\r\n    uint filled;\r\n    uint price;\r\n    uint date;\r\n  }\r\n\r\n  mapping(bytes32 => Token) public tokens;\r\n  bytes32[] public tokenList;\r\n  address public admin;\r\n\r\n  mapping(address => mapping(bytes32 => uint)) public traderBalances;\r\n\r\n  mapping(bytes32 => mapping(uint => Order[])) public orderBook;\r\n  uint public nextOrderId;\r\n  uint public nextTradeId;\r\n  bytes32 constant DAI = bytes32(\"DAI\");\r\n\r\n  event NewTradeEvent(\r\n    uint tradeId,\r\n    uint orderId,\r\n    bytes32 indexed ticker,\r\n    address indexed trader1,\r\n    address indexed trader2,\r\n    uint amount,\r\n    uint price,\r\n    uint date\r\n  );\r\n\r\n  constructor() public {\r\n    admin = msg.sender;\r\n  }\r\n\r\n  function getOrders(bytes32 ticker, Side side) external view returns(Order[] memory) {\r\n    return orderBook[ticker][uint(side)];\r\n  }\r\n\r\n  function getTokens() external view returns(Token[] memory) {\r\n    Token[] memory _tokens = new Token[](tokenList.length);\r\n    for (uint i = 0; i < tokenList.length; i++) {\r\n      _tokens[i] = Token(\r\n        tokens[tokenList[i]].ticker,\r\n        tokens[tokenList[i]].tokenAddress\r\n      );\r\n    }\r\n    return _tokens;\r\n  }\r\n\r\n  function addToken(bytes32 ticker, address tokenAddress) onlyAdmin() external {\r\n    tokens[ticker] = Token(ticker, tokenAddress);\r\n    tokenList.push(ticker);\r\n  }\r\n\r\n  function deposit(uint _amount, bytes32 _ticker) tokenExist(_ticker) external {\r\n    IERC20(tokens[_ticker].tokenAddress)\r\n      .transferFrom(msg.sender, address(this), _amount);\r\n\r\n    traderBalances[msg.sender][_ticker] = traderBalances[msg.sender][_ticker].add(_amount);\r\n  }\r\n\r\n  function withdraw(uint _amount, bytes32 _ticker) tokenExist(_ticker) external {\r\n    require(traderBalances[msg.sender][_ticker] >= _amount, \"balance too low\");\r\n    IERC20(tokens[_ticker].tokenAddress)\r\n      .transfer(msg.sender, _amount);\r\n\r\n    traderBalances[msg.sender][_ticker] = traderBalances[msg.sender][_ticker].sub(_amount);\r\n  }\r\n\r\n  function createLimitOrder(bytes32 ticker, uint amount, uint price, Side side) \r\n    tokenExist(ticker)\r\n    tokenIsNotDai(ticker)\r\n    external {\r\n    if (side == Side.SELL) {\r\n      require(traderBalances[msg.sender][ticker] >= amount, \"token balance too low\");\r\n    } else {\r\n      require(traderBalances[msg.sender][DAI] >= amount.mul(price), \"dai balance too low\");\r\n    }\r\n\r\n    Order[] storage orders = orderBook[ticker][uint(side)];\r\n    orders.push(Order(\r\n      nextOrderId,\r\n      msg.sender,\r\n      side,\r\n      ticker,\r\n      amount,\r\n      0,\r\n      price,\r\n      now\r\n    ));\r\n\r\n    //[30, 25, 22, 26] - bubble sort - buy\r\n    uint i = orders.length > 0 ? orders.length - 1 : 0; // prevent underflow because ussigned int that can never be zero\r\n    while (i > 0) {\r\n      if (side == Side.BUY && orders[i - 1].price > orders[i].price) {\r\n        break;\r\n      }\r\n      if (side == Side.SELL && orders[i - 1].price < orders[i].price) {\r\n        break;\r\n      }\r\n      Order memory order = orders[i - 1];\r\n      orders[i - 1] = orders[i];\r\n      orders[i] = order;\r\n      i.sub(1);\r\n    }\r\n\r\n    nextOrderId = nextOrderId.add(1);\r\n\r\n  }\r\n\r\n  function createMarketOrder(bytes32 ticker, uint amount, Side side) \r\n    tokenExist(ticker)\r\n    tokenIsNotDai(ticker) \r\n    external {\r\n    if (side == Side.SELL) {\r\n      require(traderBalances[msg.sender][ticker] >= amount, \"token balance too low\");\r\n    } \r\n\r\n    Order[] storage orders = orderBook[ticker][uint(side == Side.BUY ? Side.SELL : Side.BUY)];\r\n    uint i;\r\n    uint remaining = amount;\r\n\r\n    while (i < orders.length && remaining > 0) {\r\n      uint available = orders[i].amount.sub(orders[i].filled);\r\n      uint matched = (remaining > available) ? available : remaining;\r\n      remaining = remaining.sub(matched);\r\n      orders[i].filled = orders[i].filled.add(matched);\r\n\r\n      emit NewTradeEvent(\r\n        nextTradeId,\r\n        orders[i].id,\r\n        ticker,\r\n        orders[i].trader,\r\n        msg.sender,\r\n        matched,\r\n        orders[i].price,\r\n        now\r\n      );\r\n\r\n      if (side == Side.SELL) {\r\n        traderBalances[msg.sender][ticker] = traderBalances[msg.sender][ticker]\r\n          .sub(matched);\r\n        traderBalances[msg.sender][DAI] = traderBalances[msg.sender][DAI]\r\n          .add(matched.mul(orders[i].price));\r\n\r\n        traderBalances[orders[i].trader][ticker] = traderBalances[orders[i].trader][ticker]\r\n          .add(matched);\r\n        traderBalances[orders[i].trader][DAI] = traderBalances[orders[i].trader][DAI]\r\n          .sub(matched.mul(orders[i].price));\r\n      } else {\r\n        require(traderBalances[msg.sender][DAI] >= amount.mul(orders[i].price), \"dai balance too low\");\r\n\r\n        traderBalances[msg.sender][ticker] = traderBalances[msg.sender][ticker]\r\n          .add(matched);\r\n        traderBalances[msg.sender][DAI] = traderBalances[msg.sender][DAI]\r\n          .sub(matched.mul(orders[i].price));\r\n\r\n        traderBalances[orders[i].trader][ticker] = traderBalances[orders[i].trader][ticker]\r\n          .sub(matched);\r\n        traderBalances[orders[i].trader][DAI] = traderBalances[orders[i].trader][DAI]\r\n          .add(matched.mul(orders[i].price));\r\n      }\r\n\r\n      nextTradeId = nextTradeId.add(1);\r\n      i = i.add(1);\r\n    }\r\n\r\n    /// remove filled orders\r\n    i = 0;\r\n    while(i < orders.length && orders[i].filled == orders[i].amount) {\r\n      for (uint j = i; j < orders.length - 1; j++) {\r\n        orders[j] = orders[j.add(1)];\r\n      }\r\n      orders.pop();\r\n      i = i.add(1);\r\n    }\r\n  }\r\n\r\n  modifier tokenExist(bytes32 _ticker) {\r\n    require(tokens[_ticker].tokenAddress != address(0), \"token does not exist\");\r\n    _;\r\n  }\r\n\r\n  modifier onlyAdmin() {\r\n    require(msg.sender == admin, \"only admin\");\r\n    _;\r\n  }\r\n\r\n  modifier tokenIsNotDai(bytes32 ticker) {\r\n    require(ticker != DAI, \"cannot trade DAI\");\r\n    _;\r\n  }\r\n\r\n}",
  "sourcePath": "C:\\Development\\Products\\Blockchain\\6Dex\\contracts\\Dex.sol",
  "compiler": {
    "name": "solc",
    "version": "0.6.3+commit.8dda9521.Emscripten.clang"
  },
  "schemaVersion": "3.4.10",
  "updatedAt": "2022-10-22T14:09:01.262Z",
  "networkType": "ethereum",
  "devdoc": {
    "methods": {}
  },
  "userdoc": {
    "methods": {}
  }
}